{
  "_format": "hh-sol-artifact-1",
  "contractName": "Raffle",
  "sourceName": "contracts/raffle.sol",
  "abi": [
    {
      "inputs": [
        {
          "internalType": "address",
          "name": "vrfCoordinatorV2",
          "type": "address"
        },
        {
          "internalType": "uint64",
          "name": "subscriptionId",
          "type": "uint64"
        },
        {
          "internalType": "bytes32",
          "name": "gasLane",
          "type": "bytes32"
        },
        {
          "internalType": "uint256",
          "name": "entranceFee",
          "type": "uint256"
        },
        {
          "internalType": "uint32",
          "name": "callbackGasLimit",
          "type": "uint32"
        }
      ],
      "stateMutability": "nonpayable",
      "type": "constructor"
    },
    {
      "inputs": [
        {
          "internalType": "address",
          "name": "have",
          "type": "address"
        },
        {
          "internalType": "address",
          "name": "want",
          "type": "address"
        }
      ],
      "name": "OnlyCoordinatorCanFulfill",
      "type": "error"
    },
    {
      "inputs": [],
      "name": "Raffle__RaffleNotOpen",
      "type": "error"
    },
    {
      "inputs": [],
      "name": "Raffle__SendMoreToEnterRaffle",
      "type": "error"
    },
    {
      "inputs": [],
      "name": "Raffle__TransferFailed",
      "type": "error"
    },
    {
      "inputs": [
        {
          "internalType": "uint256",
          "name": "currentBalance",
          "type": "uint256"
        },
        {
          "internalType": "uint256",
          "name": "numPlayers",
          "type": "uint256"
        },
        {
          "internalType": "uint256",
          "name": "raffleState",
          "type": "uint256"
        }
      ],
      "name": "Raffle__UpkeepNotNeeded",
      "type": "error"
    },
    {
      "anonymous": false,
      "inputs": [
        {
          "indexed": true,
          "internalType": "address",
          "name": "previousOwner",
          "type": "address"
        },
        {
          "indexed": true,
          "internalType": "address",
          "name": "newOwner",
          "type": "address"
        }
      ],
      "name": "OwnershipTransferred",
      "type": "event"
    },
    {
      "anonymous": false,
      "inputs": [
        {
          "indexed": true,
          "internalType": "address",
          "name": "player",
          "type": "address"
        }
      ],
      "name": "RaffleEnter",
      "type": "event"
    },
    {
      "anonymous": false,
      "inputs": [
        {
          "indexed": true,
          "internalType": "uint256",
          "name": "timeLimit",
          "type": "uint256"
        }
      ],
      "name": "RaffleStarted",
      "type": "event"
    },
    {
      "anonymous": false,
      "inputs": [
        {
          "indexed": true,
          "internalType": "uint256",
          "name": "requestId",
          "type": "uint256"
        }
      ],
      "name": "RequestedRaffleWinner",
      "type": "event"
    },
    {
      "anonymous": false,
      "inputs": [
        {
          "indexed": true,
          "internalType": "address",
          "name": "player",
          "type": "address"
        },
        {
          "indexed": false,
          "internalType": "uint256",
          "name": "winAmount",
          "type": "uint256"
        }
      ],
      "name": "WinnerPickedAndRaffleClosed",
      "type": "event"
    },
    {
      "inputs": [
        {
          "internalType": "bytes",
          "name": "",
          "type": "bytes"
        }
      ],
      "name": "checkUpkeep",
      "outputs": [
        {
          "internalType": "bool",
          "name": "upkeepNeeded",
          "type": "bool"
        },
        {
          "internalType": "bytes",
          "name": "",
          "type": "bytes"
        }
      ],
      "stateMutability": "view",
      "type": "function"
    },
    {
      "inputs": [],
      "name": "enterRaffle",
      "outputs": [],
      "stateMutability": "payable",
      "type": "function"
    },
    {
      "inputs": [],
      "name": "getEntranceFee",
      "outputs": [
        {
          "internalType": "uint256",
          "name": "",
          "type": "uint256"
        }
      ],
      "stateMutability": "view",
      "type": "function"
    },
    {
      "inputs": [],
      "name": "getInterval",
      "outputs": [
        {
          "internalType": "uint256",
          "name": "",
          "type": "uint256"
        }
      ],
      "stateMutability": "view",
      "type": "function"
    },
    {
      "inputs": [],
      "name": "getLastTimeStamp",
      "outputs": [
        {
          "internalType": "uint256",
          "name": "",
          "type": "uint256"
        }
      ],
      "stateMutability": "view",
      "type": "function"
    },
    {
      "inputs": [],
      "name": "getNumWords",
      "outputs": [
        {
          "internalType": "uint256",
          "name": "",
          "type": "uint256"
        }
      ],
      "stateMutability": "pure",
      "type": "function"
    },
    {
      "inputs": [],
      "name": "getNumberOfPlayers",
      "outputs": [
        {
          "internalType": "uint256",
          "name": "",
          "type": "uint256"
        }
      ],
      "stateMutability": "view",
      "type": "function"
    },
    {
      "inputs": [
        {
          "internalType": "uint256",
          "name": "index",
          "type": "uint256"
        }
      ],
      "name": "getPlayer",
      "outputs": [
        {
          "internalType": "address",
          "name": "",
          "type": "address"
        }
      ],
      "stateMutability": "view",
      "type": "function"
    },
    {
      "inputs": [],
      "name": "getRaffleBalance",
      "outputs": [
        {
          "internalType": "uint256",
          "name": "",
          "type": "uint256"
        }
      ],
      "stateMutability": "view",
      "type": "function"
    },
    {
      "inputs": [],
      "name": "getRaffleStartTimestamp",
      "outputs": [
        {
          "internalType": "uint256",
          "name": "",
          "type": "uint256"
        }
      ],
      "stateMutability": "view",
      "type": "function"
    },
    {
      "inputs": [],
      "name": "getRaffleState",
      "outputs": [
        {
          "internalType": "enum Raffle.RaffleState",
          "name": "",
          "type": "uint8"
        }
      ],
      "stateMutability": "view",
      "type": "function"
    },
    {
      "inputs": [],
      "name": "getRecentWinner",
      "outputs": [
        {
          "internalType": "address",
          "name": "",
          "type": "address"
        }
      ],
      "stateMutability": "view",
      "type": "function"
    },
    {
      "inputs": [],
      "name": "getRequestConfirmations",
      "outputs": [
        {
          "internalType": "uint256",
          "name": "",
          "type": "uint256"
        }
      ],
      "stateMutability": "pure",
      "type": "function"
    },
    {
      "inputs": [],
      "name": "owner",
      "outputs": [
        {
          "internalType": "address",
          "name": "",
          "type": "address"
        }
      ],
      "stateMutability": "view",
      "type": "function"
    },
    {
      "inputs": [
        {
          "internalType": "bytes",
          "name": "",
          "type": "bytes"
        }
      ],
      "name": "performUpkeep",
      "outputs": [],
      "stateMutability": "nonpayable",
      "type": "function"
    },
    {
      "inputs": [
        {
          "internalType": "uint256",
          "name": "requestId",
          "type": "uint256"
        },
        {
          "internalType": "uint256[]",
          "name": "randomWords",
          "type": "uint256[]"
        }
      ],
      "name": "rawFulfillRandomWords",
      "outputs": [],
      "stateMutability": "nonpayable",
      "type": "function"
    },
    {
      "inputs": [],
      "name": "renounceOwnership",
      "outputs": [],
      "stateMutability": "nonpayable",
      "type": "function"
    },
    {
      "inputs": [
        {
          "internalType": "uint256",
          "name": "timeLimit",
          "type": "uint256"
        }
      ],
      "name": "startRaffle",
      "outputs": [],
      "stateMutability": "nonpayable",
      "type": "function"
    },
    {
      "inputs": [
        {
          "internalType": "address",
          "name": "newOwner",
          "type": "address"
        }
      ],
      "name": "transferOwnership",
      "outputs": [],
      "stateMutability": "nonpayable",
      "type": "function"
    }
  ],
  "bytecode": "0x6101406040523480156200001257600080fd5b5060405162001e9638038062001e9683398181016040528101906200003891906200028f565b848073ffffffffffffffffffffffffffffffffffffffff1660808173ffffffffffffffffffffffffffffffffffffffff1660601b815250505062000091620000856200015060201b60201c565b6200015860201b60201c565b8473ffffffffffffffffffffffffffffffffffffffff1660a08173ffffffffffffffffffffffffffffffffffffffff1660601b815250508260e081815250508367ffffffffffffffff1660c08167ffffffffffffffff1660c01b815250508161012081815250506001600660006101000a81548160ff0219169083600281111562000121576200012062000383565b5b0217905550426002819055508063ffffffff166101008163ffffffff1660e01b81525050505050505062000439565b600033905090565b60008060009054906101000a900473ffffffffffffffffffffffffffffffffffffffff169050816000806101000a81548173ffffffffffffffffffffffffffffffffffffffff021916908373ffffffffffffffffffffffffffffffffffffffff1602179055508173ffffffffffffffffffffffffffffffffffffffff168173ffffffffffffffffffffffffffffffffffffffff167f8be0079c531659141344cd1fd0a4f28419497f9722a3daafe3b4186f6b6457e060405160405180910390a35050565b6000815190506200022d81620003b7565b92915050565b6000815190506200024481620003d1565b92915050565b6000815190506200025b81620003eb565b92915050565b600081519050620002728162000405565b92915050565b60008151905062000289816200041f565b92915050565b600080600080600060a08688031215620002ae57620002ad620003b2565b5b6000620002be888289016200021c565b9550506020620002d18882890162000278565b9450506040620002e48882890162000233565b9350506060620002f7888289016200024a565b92505060806200030a8882890162000261565b9150509295509295909350565b6000620003248262000335565b9050919050565b6000819050919050565b600073ffffffffffffffffffffffffffffffffffffffff82169050919050565b6000819050919050565b600063ffffffff82169050919050565b600067ffffffffffffffff82169050919050565b7f4e487b7100000000000000000000000000000000000000000000000000000000600052602160045260246000fd5b600080fd5b620003c28162000317565b8114620003ce57600080fd5b50565b620003dc816200032b565b8114620003e857600080fd5b50565b620003f68162000355565b81146200040257600080fd5b50565b62000410816200035f565b81146200041c57600080fd5b50565b6200042a816200036f565b81146200043657600080fd5b50565b60805160601c60a05160601c60c05160c01c60e0516101005160e01c610120516119f3620004a360003960008181610440015261053d0152600061082a015260006107e601526000610807015260006107aa01526000818161047d01526104d101526119f36000f3fe6080604052600436106101145760003560e01c80635f1b0fd8116100a0578063c1c244e811610064578063c1c244e81461034d578063e55ae4e814610378578063f1ae8c55146103b5578063f2fde38b146103de578063fd6673f51461040757610114565b80635f1b0fd8146102775780636e04ff0d146102a2578063715018a6146102e05780638da5cb5b146102f757806391ad27b41461032257610114565b80632cfcc539116100e75780632cfcc539146101c35780634585e33b146101cd578063473f1ddc146101f6578063475f03431461022157806353a2c19a1461024c57610114565b806301376bcb1461011957806309bc33a714610144578063115cbaf51461016f5780631fe543e31461019a575b600080fd5b34801561012557600080fd5b5061012e610432565b60405161013b9190611559565b60405180910390f35b34801561015057600080fd5b5061015961043c565b6040516101669190611559565b60405180910390f35b34801561017b57600080fd5b50610184610464565b60405161019191906114fe565b60405180910390f35b3480156101a657600080fd5b506101c160048036038101906101bc91906112ac565b61047b565b005b6101cb61053b565b005b3480156101d957600080fd5b506101f460048036038101906101ef91906111bc565b6106aa565b005b34801561020257600080fd5b5061020b6108f3565b6040516102189190611437565b60405180910390f35b34801561022d57600080fd5b5061023661091d565b6040516102439190611559565b60405180910390f35b34801561025857600080fd5b50610261610925565b60405161026e9190611559565b60405180910390f35b34801561028357600080fd5b5061028c610934565b6040516102999190611559565b60405180910390f35b3480156102ae57600080fd5b506102c960048036038101906102c49190611209565b610941565b6040516102d792919061147b565b60405180910390f35b3480156102ec57600080fd5b506102f5610a0b565b005b34801561030357600080fd5b5061030c610a1f565b6040516103199190611437565b60405180910390f35b34801561032e57600080fd5b50610337610a48565b6040516103449190611559565b60405180910390f35b34801561035957600080fd5b50610362610a52565b60405161036f9190611559565b60405180910390f35b34801561038457600080fd5b5061039f600480360381019061039a9190611252565b610a5c565b6040516103ac9190611437565b60405180910390f35b3480156103c157600080fd5b506103dc60048036038101906103d79190611252565b610aa4565b005b3480156103ea57600080fd5b506104056004803603810190610400919061118f565b610b17565b005b34801561041357600080fd5b5061041c610b9b565b6040516104299190611559565b60405180910390f35b6000600354905090565b60007f0000000000000000000000000000000000000000000000000000000000000000905090565b6000600660009054906101000a900460ff16905090565b7f000000000000000000000000000000000000000000000000000000000000000073ffffffffffffffffffffffffffffffffffffffff163373ffffffffffffffffffffffffffffffffffffffff161461052d57337f00000000000000000000000000000000000000000000000000000000000000006040517f1cf993f4000000000000000000000000000000000000000000000000000000008152600401610524929190611452565b60405180910390fd5b6105378282610ba8565b5050565b7f0000000000000000000000000000000000000000000000000000000000000000341015610595576040517f3038c00a00000000000000000000000000000000000000000000000000000000815260040160405180910390fd5b600160028111156105a9576105a8611844565b5b600660009054906101000a900460ff1660028111156105cb576105ca611844565b5b14610602576040517fd24a271400000000000000000000000000000000000000000000000000000000815260040160405180910390fd5b6005339080600181540180825580915050600190039060005260206000200160009091909190916101000a81548173ffffffffffffffffffffffffffffffffffffffff021916908373ffffffffffffffffffffffffffffffffffffffff1602179055503373ffffffffffffffffffffffffffffffffffffffff167f0805e1d667bddb8a95f0f09880cf94f403fb596ce79928d9f29b74203ba284d460405160405180910390a2565b60006106c460405180602001604052806000815250610941565b5090506000600154600354426106da9190611665565b1190508161077b578015610714576000600660006101000a81548160ff0219169083600281111561070e5761070d611844565b5b02179055505b47600580549050600660009054906101000a900460ff16600281111561073d5761073c611844565b5b6040517f584327aa00000000000000000000000000000000000000000000000000000000815260040161077293929190611574565b60405180910390fd5b6002600660006101000a81548160ff021916908360028111156107a1576107a0611844565b5b021790555060007f000000000000000000000000000000000000000000000000000000000000000073ffffffffffffffffffffffffffffffffffffffff16635d3b1d307f00000000000000000000000000000000000000000000000000000000000000007f000000000000000000000000000000000000000000000000000000000000000060037f000000000000000000000000000000000000000000000000000000000000000060016040518663ffffffff1660e01b815260040161086b9594939291906114ab565b602060405180830381600087803b15801561088557600080fd5b505af1158015610899573d6000803e3d6000fd5b505050506040513d601f19601f820116820180604052508101906108bd919061127f565b9050807fcd6e45c8998311cab7e9d4385596cac867e20a0587194b954fa3a731c93ce78b60405160405180910390a25050505050565b6000600460009054906101000a900473ffffffffffffffffffffffffffffffffffffffff16905090565b600047905090565b6000600163ffffffff16905090565b6000600361ffff16905090565b600060606000600660009054906101000a900460ff16600281111561096957610968611844565b5b6001600281111561097d5761097c611844565b5b1490506000600154600354426109939190611665565b119050600080600580549050119050600080471190508280156109b35750835b80156109bc5750805b80156109c55750815b9550856040518060400160405280600381526020017f30783000000000000000000000000000000000000000000000000000000000008152509550955050505050915091565b610a13610dfb565b610a1d6000610e79565b565b60008060009054906101000a900473ffffffffffffffffffffffffffffffffffffffff16905090565b6000600154905090565b6000600254905090565b600060058281548110610a7257610a71611873565b5b9060005260206000200160009054906101000a900473ffffffffffffffffffffffffffffffffffffffff169050919050565b610aac610dfb565b6001600660006101000a81548160ff02191690836002811115610ad257610ad1611844565b5b021790555080600181905550426003819055506001547fe23fdee573320f133dc10284dcb988d5c782f07ec7b6b01d7ffbc6d537b2a42160405160405180910390a250565b610b1f610dfb565b600073ffffffffffffffffffffffffffffffffffffffff168173ffffffffffffffffffffffffffffffffffffffff161415610b8f576040517f08c379a0000000000000000000000000000000000000000000000000000000008152600401610b8690611519565b60405180910390fd5b610b9881610e79565b50565b6000600580549050905090565b600060058054905082600081518110610bc457610bc3611873565b5b6020026020010151610bd691906117b5565b9050600060058281548110610bee57610bed611873565b5b9060005260206000200160009054906101000a900473ffffffffffffffffffffffffffffffffffffffff16905080600460006101000a81548173ffffffffffffffffffffffffffffffffffffffff021916908373ffffffffffffffffffffffffffffffffffffffff160217905550600067ffffffffffffffff811115610c7757610c766118a2565b5b604051908082528060200260200182016040528015610ca55781602001602082028036833780820191505090505b5060059080519060200190610cbb929190610f45565b506000600660006101000a81548160ff02191690836002811115610ce257610ce1611844565b5b02179055504260028190555060006001819055506000610d0061091d565b905060008273ffffffffffffffffffffffffffffffffffffffff1682604051610d2890611422565b60006040518083038185875af1925050503d8060008114610d65576040519150601f19603f3d011682016040523d82523d6000602084013e610d6a565b606091505b5050905080610da5576040517fa1d04b3900000000000000000000000000000000000000000000000000000000815260040160405180910390fd5b8273ffffffffffffffffffffffffffffffffffffffff167f1601ecd5ddd32c4217efeecffefe71b0ab7ac916ce2cd5372259d7810817606383604051610deb9190611559565b60405180910390a2505050505050565b610e03610f3d565b73ffffffffffffffffffffffffffffffffffffffff16610e21610a1f565b73ffffffffffffffffffffffffffffffffffffffff1614610e77576040517f08c379a0000000000000000000000000000000000000000000000000000000008152600401610e6e90611539565b60405180910390fd5b565b60008060009054906101000a900473ffffffffffffffffffffffffffffffffffffffff169050816000806101000a81548173ffffffffffffffffffffffffffffffffffffffff021916908373ffffffffffffffffffffffffffffffffffffffff1602179055508173ffffffffffffffffffffffffffffffffffffffff168173ffffffffffffffffffffffffffffffffffffffff167f8be0079c531659141344cd1fd0a4f28419497f9722a3daafe3b4186f6b6457e060405160405180910390a35050565b600033905090565b828054828255906000526020600020908101928215610fbe579160200282015b82811115610fbd5782518260006101000a81548173ffffffffffffffffffffffffffffffffffffffff021916908373ffffffffffffffffffffffffffffffffffffffff16021790555091602001919060010190610f65565b5b509050610fcb9190610fcf565b5090565b5b80821115610fe8576000816000905550600101610fd0565b5090565b6000610fff610ffa846115d0565b6115ab565b90508083825260208201905082856020860282011115611022576110216118db565b5b60005b8581101561105257816110388882611165565b845260208401935060208301925050600181019050611025565b5050509392505050565b600061106f61106a846115fc565b6115ab565b90508281526020810184848401111561108b5761108a6118e0565b5b611096848285611742565b509392505050565b6000813590506110ad8161198f565b92915050565b600082601f8301126110c8576110c76118d6565b5b81356110d8848260208601610fec565b91505092915050565b60008083601f8401126110f7576110f66118d6565b5b8235905067ffffffffffffffff811115611114576111136118d1565b5b6020830191508360018202830111156111305761112f6118db565b5b9250929050565b600082601f83011261114c5761114b6118d6565b5b813561115c84826020860161105c565b91505092915050565b600081359050611174816119a6565b92915050565b600081519050611189816119a6565b92915050565b6000602082840312156111a5576111a46118ea565b5b60006111b38482850161109e565b91505092915050565b600080602083850312156111d3576111d26118ea565b5b600083013567ffffffffffffffff8111156111f1576111f06118e5565b5b6111fd858286016110e1565b92509250509250929050565b60006020828403121561121f5761121e6118ea565b5b600082013567ffffffffffffffff81111561123d5761123c6118e5565b5b61124984828501611137565b91505092915050565b600060208284031215611268576112676118ea565b5b600061127684828501611165565b91505092915050565b600060208284031215611295576112946118ea565b5b60006112a38482850161117a565b91505092915050565b600080604083850312156112c3576112c26118ea565b5b60006112d185828601611165565b925050602083013567ffffffffffffffff8111156112f2576112f16118e5565b5b6112fe858286016110b3565b9150509250929050565b61131181611699565b82525050565b611320816116ab565b82525050565b61132f816116b7565b82525050565b60006113408261162d565b61134a8185611638565b935061135a818560208601611751565b611363816118ef565b840191505092915050565b61137781611730565b82525050565b600061138a602683611654565b915061139582611900565b604082019050919050565b60006113ad602083611654565b91506113b88261194f565b602082019050919050565b60006113d0600083611649565b91506113db82611978565b600082019050919050565b6113ef816116d4565b82525050565b6113fe81611702565b82525050565b61140d8161170c565b82525050565b61141c8161171c565b82525050565b600061142d826113c3565b9150819050919050565b600060208201905061144c6000830184611308565b92915050565b60006040820190506114676000830185611308565b6114746020830184611308565b9392505050565b60006040820190506114906000830185611317565b81810360208301526114a28184611335565b90509392505050565b600060a0820190506114c06000830188611326565b6114cd6020830187611413565b6114da60408301866113e6565b6114e76060830185611404565b6114f46080830184611404565b9695505050505050565b6000602082019050611513600083018461136e565b92915050565b600060208201905081810360008301526115328161137d565b9050919050565b60006020820190508181036000830152611552816113a0565b9050919050565b600060208201905061156e60008301846113f5565b92915050565b600060608201905061158960008301866113f5565b61159660208301856113f5565b6115a360408301846113f5565b949350505050565b60006115b56115c6565b90506115c18282611784565b919050565b6000604051905090565b600067ffffffffffffffff8211156115eb576115ea6118a2565b5b602082029050602081019050919050565b600067ffffffffffffffff821115611617576116166118a2565b5b611620826118ef565b9050602081019050919050565b600081519050919050565b600082825260208201905092915050565b600081905092915050565b600082825260208201905092915050565b600061167082611702565b915061167b83611702565b92508282101561168e5761168d6117e6565b5b828203905092915050565b60006116a4826116e2565b9050919050565b60008115159050919050565b6000819050919050565b60008190506116cf8261197b565b919050565b600061ffff82169050919050565b600073ffffffffffffffffffffffffffffffffffffffff82169050919050565b6000819050919050565b600063ffffffff82169050919050565b600067ffffffffffffffff82169050919050565b600061173b826116c1565b9050919050565b82818337600083830152505050565b60005b8381101561176f578082015181840152602081019050611754565b8381111561177e576000848401525b50505050565b61178d826118ef565b810181811067ffffffffffffffff821117156117ac576117ab6118a2565b5b80604052505050565b60006117c082611702565b91506117cb83611702565b9250826117db576117da611815565b5b828206905092915050565b7f4e487b7100000000000000000000000000000000000000000000000000000000600052601160045260246000fd5b7f4e487b7100000000000000000000000000000000000000000000000000000000600052601260045260246000fd5b7f4e487b7100000000000000000000000000000000000000000000000000000000600052602160045260246000fd5b7f4e487b7100000000000000000000000000000000000000000000000000000000600052603260045260246000fd5b7f4e487b7100000000000000000000000000000000000000000000000000000000600052604160045260246000fd5b600080fd5b600080fd5b600080fd5b600080fd5b600080fd5b600080fd5b6000601f19601f8301169050919050565b7f4f776e61626c653a206e6577206f776e657220697320746865207a65726f206160008201527f6464726573730000000000000000000000000000000000000000000000000000602082015250565b7f4f776e61626c653a2063616c6c6572206973206e6f7420746865206f776e6572600082015250565b50565b6003811061198c5761198b611844565b5b50565b61199881611699565b81146119a357600080fd5b50565b6119af81611702565b81146119ba57600080fd5b5056fea26469706673582212209e90ca58caed0f0faccc2d84bcf149c2ba501feabd099ef3430483bd6255608464736f6c63430008070033",
  "linkReferences": {},
  "deployedLinkReferences": {}
}