{
  "_format": "hh-sol-artifact-1",
  "contractName": "Raffle",
  "sourceName": "contracts/raffle.sol",
  "abi": [
    {
      "inputs": [
        {
          "internalType": "address",
          "name": "vrfCoordinatorV2",
          "type": "address"
        },
        {
          "internalType": "uint64",
          "name": "subscriptionId",
          "type": "uint64"
        },
        {
          "internalType": "bytes32",
          "name": "gasLane",
          "type": "bytes32"
        },
        {
          "internalType": "uint256",
          "name": "interval",
          "type": "uint256"
        },
        {
          "internalType": "uint256",
          "name": "entranceFee",
          "type": "uint256"
        },
        {
          "internalType": "uint32",
          "name": "callbackGasLimit",
          "type": "uint32"
        }
      ],
      "stateMutability": "nonpayable",
      "type": "constructor"
    },
    {
      "inputs": [
        {
          "internalType": "address",
          "name": "have",
          "type": "address"
        },
        {
          "internalType": "address",
          "name": "want",
          "type": "address"
        }
      ],
      "name": "OnlyCoordinatorCanFulfill",
      "type": "error"
    },
    {
      "inputs": [],
      "name": "Raffle__RaffleNotOpen",
      "type": "error"
    },
    {
      "inputs": [],
      "name": "Raffle__SendMoreToEnterRaffle",
      "type": "error"
    },
    {
      "inputs": [],
      "name": "Raffle__TransferFailed",
      "type": "error"
    },
    {
      "inputs": [
        {
          "internalType": "uint256",
          "name": "currentBalance",
          "type": "uint256"
        },
        {
          "internalType": "uint256",
          "name": "numPlayers",
          "type": "uint256"
        },
        {
          "internalType": "uint256",
          "name": "raffleState",
          "type": "uint256"
        }
      ],
      "name": "Raffle__UpkeepNotNeeded",
      "type": "error"
    },
    {
      "anonymous": false,
      "inputs": [
        {
          "indexed": true,
          "internalType": "address",
          "name": "player",
          "type": "address"
        }
      ],
      "name": "RaffleEnter",
      "type": "event"
    },
    {
      "anonymous": false,
      "inputs": [
        {
          "indexed": true,
          "internalType": "uint256",
          "name": "requestId",
          "type": "uint256"
        }
      ],
      "name": "RequestedRaffleWinner",
      "type": "event"
    },
    {
      "anonymous": false,
      "inputs": [
        {
          "indexed": true,
          "internalType": "address",
          "name": "player",
          "type": "address"
        }
      ],
      "name": "WinnerPicked",
      "type": "event"
    },
    {
      "inputs": [
        {
          "internalType": "bytes",
          "name": "",
          "type": "bytes"
        }
      ],
      "name": "checkUpkeep",
      "outputs": [
        {
          "internalType": "bool",
          "name": "upkeepNeeded",
          "type": "bool"
        },
        {
          "internalType": "bytes",
          "name": "",
          "type": "bytes"
        }
      ],
      "stateMutability": "view",
      "type": "function"
    },
    {
      "inputs": [],
      "name": "enterRaffle",
      "outputs": [],
      "stateMutability": "payable",
      "type": "function"
    },
    {
      "inputs": [],
      "name": "getEntranceFee",
      "outputs": [
        {
          "internalType": "uint256",
          "name": "",
          "type": "uint256"
        }
      ],
      "stateMutability": "view",
      "type": "function"
    },
    {
      "inputs": [],
      "name": "getInterval",
      "outputs": [
        {
          "internalType": "uint256",
          "name": "",
          "type": "uint256"
        }
      ],
      "stateMutability": "view",
      "type": "function"
    },
    {
      "inputs": [],
      "name": "getLastTimeStamp",
      "outputs": [
        {
          "internalType": "uint256",
          "name": "",
          "type": "uint256"
        }
      ],
      "stateMutability": "view",
      "type": "function"
    },
    {
      "inputs": [],
      "name": "getNumWords",
      "outputs": [
        {
          "internalType": "uint256",
          "name": "",
          "type": "uint256"
        }
      ],
      "stateMutability": "pure",
      "type": "function"
    },
    {
      "inputs": [],
      "name": "getNumberOfPlayers",
      "outputs": [
        {
          "internalType": "uint256",
          "name": "",
          "type": "uint256"
        }
      ],
      "stateMutability": "view",
      "type": "function"
    },
    {
      "inputs": [
        {
          "internalType": "uint256",
          "name": "index",
          "type": "uint256"
        }
      ],
      "name": "getPlayer",
      "outputs": [
        {
          "internalType": "address",
          "name": "",
          "type": "address"
        }
      ],
      "stateMutability": "view",
      "type": "function"
    },
    {
      "inputs": [],
      "name": "getRaffleState",
      "outputs": [
        {
          "internalType": "enum Raffle.RaffleState",
          "name": "",
          "type": "uint8"
        }
      ],
      "stateMutability": "view",
      "type": "function"
    },
    {
      "inputs": [],
      "name": "getRecentWinner",
      "outputs": [
        {
          "internalType": "address",
          "name": "",
          "type": "address"
        }
      ],
      "stateMutability": "view",
      "type": "function"
    },
    {
      "inputs": [],
      "name": "getRequestConfirmations",
      "outputs": [
        {
          "internalType": "uint256",
          "name": "",
          "type": "uint256"
        }
      ],
      "stateMutability": "pure",
      "type": "function"
    },
    {
      "inputs": [
        {
          "internalType": "bytes",
          "name": "",
          "type": "bytes"
        }
      ],
      "name": "performUpkeep",
      "outputs": [],
      "stateMutability": "nonpayable",
      "type": "function"
    },
    {
      "inputs": [
        {
          "internalType": "uint256",
          "name": "requestId",
          "type": "uint256"
        },
        {
          "internalType": "uint256[]",
          "name": "randomWords",
          "type": "uint256[]"
        }
      ],
      "name": "rawFulfillRandomWords",
      "outputs": [],
      "stateMutability": "nonpayable",
      "type": "function"
    }
  ],
  "bytecode": "0x6101406040523480156200001257600080fd5b5060405162001828380380620018288339818101604052810190620000389190620001ab565b858073ffffffffffffffffffffffffffffffffffffffff1660808173ffffffffffffffffffffffffffffffffffffffff1660601b81525050508573ffffffffffffffffffffffffffffffffffffffff1660a08173ffffffffffffffffffffffffffffffffffffffff1660601b815250508360e081815250508261012081815250508467ffffffffffffffff1660c08167ffffffffffffffff1660c01b81525050816002819055506000600460006101000a81548160ff02191690836001811115620001085762000107620002b3565b5b0217905550426000819055508063ffffffff166101008163ffffffff1660e01b8152505050505050505062000369565b6000815190506200014981620002e7565b92915050565b600081519050620001608162000301565b92915050565b60008151905062000177816200031b565b92915050565b6000815190506200018e8162000335565b92915050565b600081519050620001a5816200034f565b92915050565b60008060008060008060c08789031215620001cb57620001ca620002e2565b5b6000620001db89828a0162000138565b9650506020620001ee89828a0162000194565b95505060406200020189828a016200014f565b94505060606200021489828a0162000166565b93505060806200022789828a0162000166565b92505060a06200023a89828a016200017d565b9150509295509295509295565b6000620002548262000265565b9050919050565b6000819050919050565b600073ffffffffffffffffffffffffffffffffffffffff82169050919050565b6000819050919050565b600063ffffffff82169050919050565b600067ffffffffffffffff82169050919050565b7f4e487b7100000000000000000000000000000000000000000000000000000000600052602160045260246000fd5b600080fd5b620002f28162000247565b8114620002fe57600080fd5b50565b6200030c816200025b565b81146200031857600080fd5b50565b620003268162000285565b81146200033257600080fd5b50565b62000340816200028f565b81146200034c57600080fd5b50565b6200035a816200029f565b81146200036657600080fd5b50565b60805160601c60a05160601c60c05160c01c60e0516101005160e01c61012051611455620003d3600039600081816107b1015261085a015260006106600152600061061c0152600061063d015260006105e0015260008181610319015261036d01526114556000f3fe6080604052600436106100c25760003560e01c806353a2c19a1161007f57806391ad27b41161005957806391ad27b414610238578063c1c244e814610263578063e55ae4e81461028e578063fd6673f5146102cb576100c2565b806353a2c19a146101a45780635f1b0fd8146101cf5780636e04ff0d146101fa576100c2565b806309bc33a7146100c7578063115cbaf5146100f25780631fe543e31461011d5780632cfcc539146101465780634585e33b14610150578063473f1ddc14610179575b600080fd5b3480156100d357600080fd5b506100dc6102f6565b6040516100e9919061105b565b60405180910390f35b3480156100fe57600080fd5b50610107610300565b6040516101149190611040565b60405180910390f35b34801561012957600080fd5b50610144600480360381019061013f9190610e34565b610317565b005b61014e6103d7565b005b34801561015c57600080fd5b5061017760048036038101906101729190610d44565b610528565b005b34801561018557600080fd5b5061018e610728565b60405161019b9190610f79565b60405180910390f35b3480156101b057600080fd5b506101b9610752565b6040516101c6919061105b565b60405180910390f35b3480156101db57600080fd5b506101e4610761565b6040516101f1919061105b565b60405180910390f35b34801561020657600080fd5b50610221600480360381019061021c9190610d91565b61076e565b60405161022f929190610fbd565b60405180910390f35b34801561024457600080fd5b5061024d610856565b60405161025a919061105b565b60405180910390f35b34801561026f57600080fd5b5061027861087e565b604051610285919061105b565b60405180910390f35b34801561029a57600080fd5b506102b560048036038101906102b09190610dda565b610887565b6040516102c29190610f79565b60405180910390f35b3480156102d757600080fd5b506102e06108cf565b6040516102ed919061105b565b60405180910390f35b6000600254905090565b6000600460009054906101000a900460ff16905090565b7f000000000000000000000000000000000000000000000000000000000000000073ffffffffffffffffffffffffffffffffffffffff163373ffffffffffffffffffffffffffffffffffffffff16146103c957337f00000000000000000000000000000000000000000000000000000000000000006040517f1cf993f40000000000000000000000000000000000000000000000000000000081526004016103c0929190610f94565b60405180910390fd5b6103d382826108dc565b5050565b600254341015610413576040517f3038c00a00000000000000000000000000000000000000000000000000000000815260040160405180910390fd5b6000600181111561042757610426611335565b5b600460009054906101000a900460ff16600181111561044957610448611335565b5b14610480576040517fd24a271400000000000000000000000000000000000000000000000000000000815260040160405180910390fd5b6003339080600181540180825580915050600190039060005260206000200160009091909190916101000a81548173ffffffffffffffffffffffffffffffffffffffff021916908373ffffffffffffffffffffffffffffffffffffffff1602179055503373ffffffffffffffffffffffffffffffffffffffff167f0805e1d667bddb8a95f0f09880cf94f403fb596ce79928d9f29b74203ba284d460405160405180910390a2565b60006105426040518060200160405280600081525061076e565b509050806105b15747600380549050600460009054906101000a900460ff16600181111561057357610572611335565b5b6040517f584327aa0000000000000000000000000000000000000000000000000000000081526004016105a893929190611076565b60405180910390fd5b6001600460006101000a81548160ff021916908360018111156105d7576105d6611335565b5b021790555060007f000000000000000000000000000000000000000000000000000000000000000073ffffffffffffffffffffffffffffffffffffffff16635d3b1d307f00000000000000000000000000000000000000000000000000000000000000007f000000000000000000000000000000000000000000000000000000000000000060037f000000000000000000000000000000000000000000000000000000000000000060016040518663ffffffff1660e01b81526004016106a1959493929190610fed565b602060405180830381600087803b1580156106bb57600080fd5b505af11580156106cf573d6000803e3d6000fd5b505050506040513d601f19601f820116820180604052508101906106f39190610e07565b9050807fcd6e45c8998311cab7e9d4385596cac867e20a0587194b954fa3a731c93ce78b60405160405180910390a250505050565b6000600160009054906101000a900473ffffffffffffffffffffffffffffffffffffffff16905090565b6000600163ffffffff16905090565b6000600361ffff16905090565b600060606000600460009054906101000a900460ff16600181111561079657610795611335565b5b600060018111156107aa576107a9611335565b5b14905060007f0000000000000000000000000000000000000000000000000000000000000000600054426107de9190611156565b119050600080600380549050119050600080471190508280156107fe5750835b80156108075750805b80156108105750815b9550856040518060400160405280600381526020017f30783000000000000000000000000000000000000000000000000000000000008152509550955050505050915091565b60007f0000000000000000000000000000000000000000000000000000000000000000905090565b60008054905090565b60006003828154811061089d5761089c611364565b5b9060005260206000200160009054906101000a900473ffffffffffffffffffffffffffffffffffffffff169050919050565b6000600380549050905090565b6000600380549050826000815181106108f8576108f7611364565b5b602002602001015161090a91906112a6565b905060006003828154811061092257610921611364565b5b9060005260206000200160009054906101000a900473ffffffffffffffffffffffffffffffffffffffff16905080600160006101000a81548173ffffffffffffffffffffffffffffffffffffffff021916908373ffffffffffffffffffffffffffffffffffffffff160217905550600067ffffffffffffffff8111156109ab576109aa611393565b5b6040519080825280602002602001820160405280156109d95781602001602082028036833780820191505090505b50600390805190602001906109ef929190610b0f565b506000600460006101000a81548160ff02191690836001811115610a1657610a15611335565b5b02179055504260008190555060008173ffffffffffffffffffffffffffffffffffffffff1647604051610a4890610f64565b60006040518083038185875af1925050503d8060008114610a85576040519150601f19603f3d011682016040523d82523d6000602084013e610a8a565b606091505b5050905080610ac5576040517fa1d04b3900000000000000000000000000000000000000000000000000000000815260040160405180910390fd5b8173ffffffffffffffffffffffffffffffffffffffff167f5b690ec4a06fe979403046eaeea5b3ce38524683c3001f662c8b5a829632f7df60405160405180910390a25050505050565b828054828255906000526020600020908101928215610b88579160200282015b82811115610b875782518260006101000a81548173ffffffffffffffffffffffffffffffffffffffff021916908373ffffffffffffffffffffffffffffffffffffffff16021790555091602001919060010190610b2f565b5b509050610b959190610b99565b5090565b5b80821115610bb2576000816000905550600101610b9a565b5090565b6000610bc9610bc4846110d2565b6110ad565b90508083825260208201905082856020860282011115610bec57610beb6113cc565b5b60005b85811015610c1c5781610c028882610d1a565b845260208401935060208301925050600181019050610bef565b5050509392505050565b6000610c39610c34846110fe565b6110ad565b905082815260208101848484011115610c5557610c546113d1565b5b610c60848285611233565b509392505050565b600082601f830112610c7d57610c7c6113c7565b5b8135610c8d848260208601610bb6565b91505092915050565b60008083601f840112610cac57610cab6113c7565b5b8235905067ffffffffffffffff811115610cc957610cc86113c2565b5b602083019150836001820283011115610ce557610ce46113cc565b5b9250929050565b600082601f830112610d0157610d006113c7565b5b8135610d11848260208601610c26565b91505092915050565b600081359050610d2981611408565b92915050565b600081519050610d3e81611408565b92915050565b60008060208385031215610d5b57610d5a6113db565b5b600083013567ffffffffffffffff811115610d7957610d786113d6565b5b610d8585828601610c96565b92509250509250929050565b600060208284031215610da757610da66113db565b5b600082013567ffffffffffffffff811115610dc557610dc46113d6565b5b610dd184828501610cec565b91505092915050565b600060208284031215610df057610def6113db565b5b6000610dfe84828501610d1a565b91505092915050565b600060208284031215610e1d57610e1c6113db565b5b6000610e2b84828501610d2f565b91505092915050565b60008060408385031215610e4b57610e4a6113db565b5b6000610e5985828601610d1a565b925050602083013567ffffffffffffffff811115610e7a57610e796113d6565b5b610e8685828601610c68565b9150509250929050565b610e998161118a565b82525050565b610ea88161119c565b82525050565b610eb7816111a8565b82525050565b6000610ec88261112f565b610ed2818561113a565b9350610ee2818560208601611242565b610eeb816113e0565b840191505092915050565b610eff81611221565b82525050565b6000610f1260008361114b565b9150610f1d826113f1565b600082019050919050565b610f31816111c5565b82525050565b610f40816111f3565b82525050565b610f4f816111fd565b82525050565b610f5e8161120d565b82525050565b6000610f6f82610f05565b9150819050919050565b6000602082019050610f8e6000830184610e90565b92915050565b6000604082019050610fa96000830185610e90565b610fb66020830184610e90565b9392505050565b6000604082019050610fd26000830185610e9f565b8181036020830152610fe48184610ebd565b90509392505050565b600060a0820190506110026000830188610eae565b61100f6020830187610f55565b61101c6040830186610f28565b6110296060830185610f46565b6110366080830184610f46565b9695505050505050565b60006020820190506110556000830184610ef6565b92915050565b60006020820190506110706000830184610f37565b92915050565b600060608201905061108b6000830186610f37565b6110986020830185610f37565b6110a56040830184610f37565b949350505050565b60006110b76110c8565b90506110c38282611275565b919050565b6000604051905090565b600067ffffffffffffffff8211156110ed576110ec611393565b5b602082029050602081019050919050565b600067ffffffffffffffff82111561111957611118611393565b5b611122826113e0565b9050602081019050919050565b600081519050919050565b600082825260208201905092915050565b600081905092915050565b6000611161826111f3565b915061116c836111f3565b92508282101561117f5761117e6112d7565b5b828203905092915050565b6000611195826111d3565b9050919050565b60008115159050919050565b6000819050919050565b60008190506111c0826113f4565b919050565b600061ffff82169050919050565b600073ffffffffffffffffffffffffffffffffffffffff82169050919050565b6000819050919050565b600063ffffffff82169050919050565b600067ffffffffffffffff82169050919050565b600061122c826111b2565b9050919050565b82818337600083830152505050565b60005b83811015611260578082015181840152602081019050611245565b8381111561126f576000848401525b50505050565b61127e826113e0565b810181811067ffffffffffffffff8211171561129d5761129c611393565b5b80604052505050565b60006112b1826111f3565b91506112bc836111f3565b9250826112cc576112cb611306565b5b828206905092915050565b7f4e487b7100000000000000000000000000000000000000000000000000000000600052601160045260246000fd5b7f4e487b7100000000000000000000000000000000000000000000000000000000600052601260045260246000fd5b7f4e487b7100000000000000000000000000000000000000000000000000000000600052602160045260246000fd5b7f4e487b7100000000000000000000000000000000000000000000000000000000600052603260045260246000fd5b7f4e487b7100000000000000000000000000000000000000000000000000000000600052604160045260246000fd5b600080fd5b600080fd5b600080fd5b600080fd5b600080fd5b600080fd5b6000601f19601f8301169050919050565b50565b6002811061140557611404611335565b5b50565b611411816111f3565b811461141c57600080fd5b5056fea2646970667358221220191c52d2f849e250c03a1b6394827659b27e52416d9fc75515c5e83b2665df2164736f6c63430008070033",
  "linkReferences": {},
  "deployedLinkReferences": {}
}