{
  "address": "0xc6d8F18970900AB26F75f93bE4fB9cc1AD67e8A3",
  "abi": [
    {
      "inputs": [
        {
          "internalType": "address",
          "name": "vrfCoordinatorV2",
          "type": "address"
        },
        {
          "internalType": "uint64",
          "name": "subscriptionId",
          "type": "uint64"
        },
        {
          "internalType": "bytes32",
          "name": "gasLane",
          "type": "bytes32"
        },
        {
          "internalType": "uint256",
          "name": "interval",
          "type": "uint256"
        },
        {
          "internalType": "uint256",
          "name": "entranceFee",
          "type": "uint256"
        },
        {
          "internalType": "uint32",
          "name": "callbackGasLimit",
          "type": "uint32"
        }
      ],
      "stateMutability": "nonpayable",
      "type": "constructor"
    },
    {
      "inputs": [
        {
          "internalType": "address",
          "name": "have",
          "type": "address"
        },
        {
          "internalType": "address",
          "name": "want",
          "type": "address"
        }
      ],
      "name": "OnlyCoordinatorCanFulfill",
      "type": "error"
    },
    {
      "inputs": [],
      "name": "Raffle__RaffleNotOpen",
      "type": "error"
    },
    {
      "inputs": [],
      "name": "Raffle__SendMoreToEnterRaffle",
      "type": "error"
    },
    {
      "inputs": [],
      "name": "Raffle__TransferFailed",
      "type": "error"
    },
    {
      "inputs": [
        {
          "internalType": "uint256",
          "name": "currentBalance",
          "type": "uint256"
        },
        {
          "internalType": "uint256",
          "name": "numPlayers",
          "type": "uint256"
        },
        {
          "internalType": "uint256",
          "name": "raffleState",
          "type": "uint256"
        }
      ],
      "name": "Raffle__UpkeepNotNeeded",
      "type": "error"
    },
    {
      "anonymous": false,
      "inputs": [
        {
          "indexed": true,
          "internalType": "address",
          "name": "player",
          "type": "address"
        }
      ],
      "name": "RaffleEnter",
      "type": "event"
    },
    {
      "anonymous": false,
      "inputs": [
        {
          "indexed": true,
          "internalType": "uint256",
          "name": "requestId",
          "type": "uint256"
        }
      ],
      "name": "RequestedRaffleWinner",
      "type": "event"
    },
    {
      "anonymous": false,
      "inputs": [
        {
          "indexed": true,
          "internalType": "address",
          "name": "player",
          "type": "address"
        }
      ],
      "name": "WinnerPicked",
      "type": "event"
    },
    {
      "inputs": [
        {
          "internalType": "bytes",
          "name": "",
          "type": "bytes"
        }
      ],
      "name": "checkUpkeep",
      "outputs": [
        {
          "internalType": "bool",
          "name": "upkeepNeeded",
          "type": "bool"
        },
        {
          "internalType": "bytes",
          "name": "",
          "type": "bytes"
        }
      ],
      "stateMutability": "view",
      "type": "function"
    },
    {
      "inputs": [],
      "name": "enterRaffle",
      "outputs": [],
      "stateMutability": "payable",
      "type": "function"
    },
    {
      "inputs": [],
      "name": "getEntranceFee",
      "outputs": [
        {
          "internalType": "uint256",
          "name": "",
          "type": "uint256"
        }
      ],
      "stateMutability": "view",
      "type": "function"
    },
    {
      "inputs": [],
      "name": "getInterval",
      "outputs": [
        {
          "internalType": "uint256",
          "name": "",
          "type": "uint256"
        }
      ],
      "stateMutability": "view",
      "type": "function"
    },
    {
      "inputs": [],
      "name": "getLastTimeStamp",
      "outputs": [
        {
          "internalType": "uint256",
          "name": "",
          "type": "uint256"
        }
      ],
      "stateMutability": "view",
      "type": "function"
    },
    {
      "inputs": [],
      "name": "getNumWords",
      "outputs": [
        {
          "internalType": "uint256",
          "name": "",
          "type": "uint256"
        }
      ],
      "stateMutability": "pure",
      "type": "function"
    },
    {
      "inputs": [],
      "name": "getNumberOfPlayers",
      "outputs": [
        {
          "internalType": "uint256",
          "name": "",
          "type": "uint256"
        }
      ],
      "stateMutability": "view",
      "type": "function"
    },
    {
      "inputs": [
        {
          "internalType": "uint256",
          "name": "index",
          "type": "uint256"
        }
      ],
      "name": "getPlayer",
      "outputs": [
        {
          "internalType": "address",
          "name": "",
          "type": "address"
        }
      ],
      "stateMutability": "view",
      "type": "function"
    },
    {
      "inputs": [],
      "name": "getRaffleStartTimestamp",
      "outputs": [
        {
          "internalType": "uint256",
          "name": "",
          "type": "uint256"
        }
      ],
      "stateMutability": "view",
      "type": "function"
    },
    {
      "inputs": [],
      "name": "getRaffleState",
      "outputs": [
        {
          "internalType": "enum Raffle.RaffleState",
          "name": "",
          "type": "uint8"
        }
      ],
      "stateMutability": "view",
      "type": "function"
    },
    {
      "inputs": [],
      "name": "getRecentWinner",
      "outputs": [
        {
          "internalType": "address",
          "name": "",
          "type": "address"
        }
      ],
      "stateMutability": "view",
      "type": "function"
    },
    {
      "inputs": [],
      "name": "getRequestConfirmations",
      "outputs": [
        {
          "internalType": "uint256",
          "name": "",
          "type": "uint256"
        }
      ],
      "stateMutability": "pure",
      "type": "function"
    },
    {
      "inputs": [
        {
          "internalType": "bytes",
          "name": "",
          "type": "bytes"
        }
      ],
      "name": "performUpkeep",
      "outputs": [],
      "stateMutability": "nonpayable",
      "type": "function"
    },
    {
      "inputs": [
        {
          "internalType": "uint256",
          "name": "requestId",
          "type": "uint256"
        },
        {
          "internalType": "uint256[]",
          "name": "randomWords",
          "type": "uint256[]"
        }
      ],
      "name": "rawFulfillRandomWords",
      "outputs": [],
      "stateMutability": "nonpayable",
      "type": "function"
    }
  ],
  "transactionHash": "0xcaffd7ae565e3060f86769f06cbfa156cf95acca8ee67393feed34b81fab0b8a",
  "args": [
    "0x8103b0a8a00be2ddc778e6e7eaa21791cd364625",
    "991",
    "0x474e34a077df58807dbe9c96d3c009b23b3c6d0cce433e59bbf5b34f823bc56c",
    300,
    "5000000000000000",
    "2500000"
  ],
  "numDeployments": 1,
  "solcInputHash": "ad641bacd5fb419d9027b4b87e96db2d",
  "bytecode": "0x6101606040523480156200001257600080fd5b50604051620018de380380620018de8339818101604052810190620000389190620001ad565b858073ffffffffffffffffffffffffffffffffffffffff1660808173ffffffffffffffffffffffffffffffffffffffff1660601b81525050508573ffffffffffffffffffffffffffffffffffffffff1660a08173ffffffffffffffffffffffffffffffffffffffff1660601b815250508360e081815250508261012081815250508467ffffffffffffffff1660c08167ffffffffffffffff1660c01b815250508161014081815250506000600460006101000a81548160ff021916908360018111156200010a5762000109620002b5565b5b0217905550426000819055508063ffffffff166101008163ffffffff1660e01b815250505050505050506200036b565b6000815190506200014b81620002e9565b92915050565b600081519050620001628162000303565b92915050565b60008151905062000179816200031d565b92915050565b600081519050620001908162000337565b92915050565b600081519050620001a78162000351565b92915050565b60008060008060008060c08789031215620001cd57620001cc620002e4565b5b6000620001dd89828a016200013a565b9650506020620001f089828a0162000196565b95505060406200020389828a0162000151565b94505060606200021689828a0162000168565b93505060806200022989828a0162000168565b92505060a06200023c89828a016200017f565b9150509295509295509295565b6000620002568262000267565b9050919050565b6000819050919050565b600073ffffffffffffffffffffffffffffffffffffffff82169050919050565b6000819050919050565b600063ffffffff82169050919050565b600067ffffffffffffffff82169050919050565b7f4e487b7100000000000000000000000000000000000000000000000000000000600052602160045260246000fd5b600080fd5b620002f48162000249565b81146200030057600080fd5b50565b6200030e816200025d565b81146200031a57600080fd5b50565b620003288162000287565b81146200033457600080fd5b50565b620003428162000291565b81146200034e57600080fd5b50565b6200035c81620002a1565b81146200036857600080fd5b50565b60805160601c60a05160601c60c05160c01c60e0516101005160e01c61012051610140516114f7620003e76000396000818161034a015261044701526000818161085301526108fc01526000610702015260006106be015260006106df0152600061068201526000818161038701526103db01526114f76000f3fe6080604052600436106100dd5760003560e01c806353a2c19a1161007f57806391ad27b41161005957806391ad27b41461027e578063c1c244e8146102a9578063e55ae4e8146102d4578063fd6673f514610311576100dd565b806353a2c19a146101ea5780635f1b0fd8146102155780636e04ff0d14610240576100dd565b80631fe543e3116100bb5780631fe543e3146101635780632cfcc5391461018c5780634585e33b14610196578063473f1ddc146101bf576100dd565b806301376bcb146100e257806309bc33a71461010d578063115cbaf514610138575b600080fd5b3480156100ee57600080fd5b506100f761033c565b60405161010491906110fd565b60405180910390f35b34801561011957600080fd5b50610122610346565b60405161012f91906110fd565b60405180910390f35b34801561014457600080fd5b5061014d61036e565b60405161015a91906110e2565b60405180910390f35b34801561016f57600080fd5b5061018a60048036038101906101859190610ed6565b610385565b005b610194610445565b005b3480156101a257600080fd5b506101bd60048036038101906101b89190610de6565b6105ca565b005b3480156101cb57600080fd5b506101d46107ca565b6040516101e1919061101b565b60405180910390f35b3480156101f657600080fd5b506101ff6107f4565b60405161020c91906110fd565b60405180910390f35b34801561022157600080fd5b5061022a610803565b60405161023791906110fd565b60405180910390f35b34801561024c57600080fd5b5061026760048036038101906102629190610e33565b610810565b60405161027592919061105f565b60405180910390f35b34801561028a57600080fd5b506102936108f8565b6040516102a091906110fd565b60405180910390f35b3480156102b557600080fd5b506102be610920565b6040516102cb91906110fd565b60405180910390f35b3480156102e057600080fd5b506102fb60048036038101906102f69190610e7c565b610929565b604051610308919061101b565b60405180910390f35b34801561031d57600080fd5b50610326610971565b60405161033391906110fd565b60405180910390f35b6000600154905090565b60007f0000000000000000000000000000000000000000000000000000000000000000905090565b6000600460009054906101000a900460ff16905090565b7f000000000000000000000000000000000000000000000000000000000000000073ffffffffffffffffffffffffffffffffffffffff163373ffffffffffffffffffffffffffffffffffffffff161461043757337f00000000000000000000000000000000000000000000000000000000000000006040517f1cf993f400000000000000000000000000000000000000000000000000000000815260040161042e929190611036565b60405180910390fd5b610441828261097e565b5050565b7f000000000000000000000000000000000000000000000000000000000000000034101561049f576040517f3038c00a00000000000000000000000000000000000000000000000000000000815260040160405180910390fd5b600060018111156104b3576104b26113d7565b5b600460009054906101000a900460ff1660018111156104d5576104d46113d7565b5b1461050c576040517fd24a271400000000000000000000000000000000000000000000000000000000815260040160405180910390fd5b6003339080600181540180825580915050600190039060005260206000200160009091909190916101000a81548173ffffffffffffffffffffffffffffffffffffffff021916908373ffffffffffffffffffffffffffffffffffffffff1602179055506001600380549050141561058557426001819055505b3373ffffffffffffffffffffffffffffffffffffffff167f0805e1d667bddb8a95f0f09880cf94f403fb596ce79928d9f29b74203ba284d460405160405180910390a2565b60006105e460405180602001604052806000815250610810565b509050806106535747600380549050600460009054906101000a900460ff166001811115610615576106146113d7565b5b6040517f584327aa00000000000000000000000000000000000000000000000000000000815260040161064a93929190611118565b60405180910390fd5b6001600460006101000a81548160ff02191690836001811115610679576106786113d7565b5b021790555060007f000000000000000000000000000000000000000000000000000000000000000073ffffffffffffffffffffffffffffffffffffffff16635d3b1d307f00000000000000000000000000000000000000000000000000000000000000007f000000000000000000000000000000000000000000000000000000000000000060037f000000000000000000000000000000000000000000000000000000000000000060016040518663ffffffff1660e01b815260040161074395949392919061108f565b602060405180830381600087803b15801561075d57600080fd5b505af1158015610771573d6000803e3d6000fd5b505050506040513d601f19601f820116820180604052508101906107959190610ea9565b9050807fcd6e45c8998311cab7e9d4385596cac867e20a0587194b954fa3a731c93ce78b60405160405180910390a250505050565b6000600260009054906101000a900473ffffffffffffffffffffffffffffffffffffffff16905090565b6000600163ffffffff16905090565b6000600361ffff16905090565b600060606000600460009054906101000a900460ff166001811115610838576108376113d7565b5b6000600181111561084c5761084b6113d7565b5b14905060007f00000000000000000000000000000000000000000000000000000000000000006001544261088091906111f8565b119050600080600380549050119050600080471190508280156108a05750835b80156108a95750805b80156108b25750815b9550856040518060400160405280600381526020017f30783000000000000000000000000000000000000000000000000000000000008152509550955050505050915091565b60007f0000000000000000000000000000000000000000000000000000000000000000905090565b60008054905090565b60006003828154811061093f5761093e611406565b5b9060005260206000200160009054906101000a900473ffffffffffffffffffffffffffffffffffffffff169050919050565b6000600380549050905090565b60006003805490508260008151811061099a57610999611406565b5b60200260200101516109ac9190611348565b90506000600382815481106109c4576109c3611406565b5b9060005260206000200160009054906101000a900473ffffffffffffffffffffffffffffffffffffffff16905080600260006101000a81548173ffffffffffffffffffffffffffffffffffffffff021916908373ffffffffffffffffffffffffffffffffffffffff160217905550600067ffffffffffffffff811115610a4d57610a4c611435565b5b604051908082528060200260200182016040528015610a7b5781602001602082028036833780820191505090505b5060039080519060200190610a91929190610bb1565b506000600460006101000a81548160ff02191690836001811115610ab857610ab76113d7565b5b02179055504260008190555060008173ffffffffffffffffffffffffffffffffffffffff1647604051610aea90611006565b60006040518083038185875af1925050503d8060008114610b27576040519150601f19603f3d011682016040523d82523d6000602084013e610b2c565b606091505b5050905080610b67576040517fa1d04b3900000000000000000000000000000000000000000000000000000000815260040160405180910390fd5b8173ffffffffffffffffffffffffffffffffffffffff167f5b690ec4a06fe979403046eaeea5b3ce38524683c3001f662c8b5a829632f7df60405160405180910390a25050505050565b828054828255906000526020600020908101928215610c2a579160200282015b82811115610c295782518260006101000a81548173ffffffffffffffffffffffffffffffffffffffff021916908373ffffffffffffffffffffffffffffffffffffffff16021790555091602001919060010190610bd1565b5b509050610c379190610c3b565b5090565b5b80821115610c54576000816000905550600101610c3c565b5090565b6000610c6b610c6684611174565b61114f565b90508083825260208201905082856020860282011115610c8e57610c8d61146e565b5b60005b85811015610cbe5781610ca48882610dbc565b845260208401935060208301925050600181019050610c91565b5050509392505050565b6000610cdb610cd6846111a0565b61114f565b905082815260208101848484011115610cf757610cf6611473565b5b610d028482856112d5565b509392505050565b600082601f830112610d1f57610d1e611469565b5b8135610d2f848260208601610c58565b91505092915050565b60008083601f840112610d4e57610d4d611469565b5b8235905067ffffffffffffffff811115610d6b57610d6a611464565b5b602083019150836001820283011115610d8757610d8661146e565b5b9250929050565b600082601f830112610da357610da2611469565b5b8135610db3848260208601610cc8565b91505092915050565b600081359050610dcb816114aa565b92915050565b600081519050610de0816114aa565b92915050565b60008060208385031215610dfd57610dfc61147d565b5b600083013567ffffffffffffffff811115610e1b57610e1a611478565b5b610e2785828601610d38565b92509250509250929050565b600060208284031215610e4957610e4861147d565b5b600082013567ffffffffffffffff811115610e6757610e66611478565b5b610e7384828501610d8e565b91505092915050565b600060208284031215610e9257610e9161147d565b5b6000610ea084828501610dbc565b91505092915050565b600060208284031215610ebf57610ebe61147d565b5b6000610ecd84828501610dd1565b91505092915050565b60008060408385031215610eed57610eec61147d565b5b6000610efb85828601610dbc565b925050602083013567ffffffffffffffff811115610f1c57610f1b611478565b5b610f2885828601610d0a565b9150509250929050565b610f3b8161122c565b82525050565b610f4a8161123e565b82525050565b610f598161124a565b82525050565b6000610f6a826111d1565b610f7481856111dc565b9350610f848185602086016112e4565b610f8d81611482565b840191505092915050565b610fa1816112c3565b82525050565b6000610fb46000836111ed565b9150610fbf82611493565b600082019050919050565b610fd381611267565b82525050565b610fe281611295565b82525050565b610ff18161129f565b82525050565b611000816112af565b82525050565b600061101182610fa7565b9150819050919050565b60006020820190506110306000830184610f32565b92915050565b600060408201905061104b6000830185610f32565b6110586020830184610f32565b9392505050565b60006040820190506110746000830185610f41565b81810360208301526110868184610f5f565b90509392505050565b600060a0820190506110a46000830188610f50565b6110b16020830187610ff7565b6110be6040830186610fca565b6110cb6060830185610fe8565b6110d86080830184610fe8565b9695505050505050565b60006020820190506110f76000830184610f98565b92915050565b60006020820190506111126000830184610fd9565b92915050565b600060608201905061112d6000830186610fd9565b61113a6020830185610fd9565b6111476040830184610fd9565b949350505050565b600061115961116a565b90506111658282611317565b919050565b6000604051905090565b600067ffffffffffffffff82111561118f5761118e611435565b5b602082029050602081019050919050565b600067ffffffffffffffff8211156111bb576111ba611435565b5b6111c482611482565b9050602081019050919050565b600081519050919050565b600082825260208201905092915050565b600081905092915050565b600061120382611295565b915061120e83611295565b92508282101561122157611220611379565b5b828203905092915050565b600061123782611275565b9050919050565b60008115159050919050565b6000819050919050565b600081905061126282611496565b919050565b600061ffff82169050919050565b600073ffffffffffffffffffffffffffffffffffffffff82169050919050565b6000819050919050565b600063ffffffff82169050919050565b600067ffffffffffffffff82169050919050565b60006112ce82611254565b9050919050565b82818337600083830152505050565b60005b838110156113025780820151818401526020810190506112e7565b83811115611311576000848401525b50505050565b61132082611482565b810181811067ffffffffffffffff8211171561133f5761133e611435565b5b80604052505050565b600061135382611295565b915061135e83611295565b92508261136e5761136d6113a8565b5b828206905092915050565b7f4e487b7100000000000000000000000000000000000000000000000000000000600052601160045260246000fd5b7f4e487b7100000000000000000000000000000000000000000000000000000000600052601260045260246000fd5b7f4e487b7100000000000000000000000000000000000000000000000000000000600052602160045260246000fd5b7f4e487b7100000000000000000000000000000000000000000000000000000000600052603260045260246000fd5b7f4e487b7100000000000000000000000000000000000000000000000000000000600052604160045260246000fd5b600080fd5b600080fd5b600080fd5b600080fd5b600080fd5b600080fd5b6000601f19601f8301169050919050565b50565b600281106114a7576114a66113d7565b5b50565b6114b381611295565b81146114be57600080fd5b5056fea26469706673582212206d8df4a4ce518b8a400f0b59f0252594d6fcd7002a165baab8190554e61543c364736f6c63430008070033",
  "devdoc": {
    "author": "Patrick Collins",
    "details": "This implements the Chainlink VRF Version 2",
    "kind": "dev",
    "methods": {
      "checkUpkeep(bytes)": {
        "details": "This is the function that the Chainlink Keeper nodes call they look for `upkeepNeeded` to return True. the following should be true for this to return true: 1. The time interval has passed between raffle runs. 2. The lottery is open. 3. The contract has ETH. 4. Implicity, your subscription is funded with LINK."
      },
      "performUpkeep(bytes)": {
        "details": "Once `checkUpkeep` is returning `true`, this function is called and it kicks off a Chainlink VRF call to get a random winner."
      }
    },
    "title": "A sample Raffle Contract",
    "version": 1
  },
  "userdoc": {
    "kind": "user",
    "methods": {
      "getRaffleState()": {
        "notice": "Getter Functions "
      }
    },
    "notice": "This contract is for creating a sample raffle contract",
    "version": 1
  },
  "storageLayout": {
    "storage": [
      {
        "astId": 221,
        "contract": "contracts/raffle.sol:Raffle",
        "label": "s_lastTimeStamp",
        "offset": 0,
        "slot": "0",
        "type": "t_uint256"
      },
      {
        "astId": 223,
        "contract": "contracts/raffle.sol:Raffle",
        "label": "s_startTimestamp",
        "offset": 0,
        "slot": "1",
        "type": "t_uint256"
      },
      {
        "astId": 225,
        "contract": "contracts/raffle.sol:Raffle",
        "label": "s_recentWinner",
        "offset": 0,
        "slot": "2",
        "type": "t_address"
      },
      {
        "astId": 228,
        "contract": "contracts/raffle.sol:Raffle",
        "label": "s_players",
        "offset": 0,
        "slot": "3",
        "type": "t_array(t_address_payable)dyn_storage"
      },
      {
        "astId": 231,
        "contract": "contracts/raffle.sol:Raffle",
        "label": "s_raffleState",
        "offset": 0,
        "slot": "4",
        "type": "t_enum(RaffleState)200"
      }
    ],
    "types": {
      "t_address": {
        "encoding": "inplace",
        "label": "address",
        "numberOfBytes": "20"
      },
      "t_address_payable": {
        "encoding": "inplace",
        "label": "address payable",
        "numberOfBytes": "20"
      },
      "t_array(t_address_payable)dyn_storage": {
        "base": "t_address_payable",
        "encoding": "dynamic_array",
        "label": "address payable[]",
        "numberOfBytes": "32"
      },
      "t_enum(RaffleState)200": {
        "encoding": "inplace",
        "label": "enum Raffle.RaffleState",
        "numberOfBytes": "1"
      },
      "t_uint256": {
        "encoding": "inplace",
        "label": "uint256",
        "numberOfBytes": "32"
      }
    }
  }
}