{
  "address": "0xCd25B82A66F9Db033Ef03E1cFc7132f8cC3590b3",
  "abi": [
    {
      "inputs": [
        {
          "internalType": "address",
          "name": "vrfCoordinatorV2",
          "type": "address"
        },
        {
          "internalType": "uint64",
          "name": "subscriptionId",
          "type": "uint64"
        },
        {
          "internalType": "bytes32",
          "name": "gasLane",
          "type": "bytes32"
        },
        {
          "internalType": "uint256",
          "name": "entranceFee",
          "type": "uint256"
        },
        {
          "internalType": "uint32",
          "name": "callbackGasLimit",
          "type": "uint32"
        }
      ],
      "stateMutability": "nonpayable",
      "type": "constructor"
    },
    {
      "inputs": [
        {
          "internalType": "address",
          "name": "have",
          "type": "address"
        },
        {
          "internalType": "address",
          "name": "want",
          "type": "address"
        }
      ],
      "name": "OnlyCoordinatorCanFulfill",
      "type": "error"
    },
    {
      "inputs": [],
      "name": "Raffle__RaffleNotOpen",
      "type": "error"
    },
    {
      "inputs": [],
      "name": "Raffle__SendMoreToEnterRaffle",
      "type": "error"
    },
    {
      "inputs": [],
      "name": "Raffle__TransferFailed",
      "type": "error"
    },
    {
      "inputs": [
        {
          "internalType": "uint256",
          "name": "currentBalance",
          "type": "uint256"
        },
        {
          "internalType": "uint256",
          "name": "numPlayers",
          "type": "uint256"
        },
        {
          "internalType": "uint256",
          "name": "raffleState",
          "type": "uint256"
        }
      ],
      "name": "Raffle__UpkeepNotNeeded",
      "type": "error"
    },
    {
      "anonymous": false,
      "inputs": [
        {
          "indexed": true,
          "internalType": "address",
          "name": "previousOwner",
          "type": "address"
        },
        {
          "indexed": true,
          "internalType": "address",
          "name": "newOwner",
          "type": "address"
        }
      ],
      "name": "OwnershipTransferred",
      "type": "event"
    },
    {
      "anonymous": false,
      "inputs": [
        {
          "indexed": true,
          "internalType": "address",
          "name": "player",
          "type": "address"
        }
      ],
      "name": "RaffleEnter",
      "type": "event"
    },
    {
      "anonymous": false,
      "inputs": [
        {
          "indexed": true,
          "internalType": "uint256",
          "name": "timeLimit",
          "type": "uint256"
        }
      ],
      "name": "RaffleStarted",
      "type": "event"
    },
    {
      "anonymous": false,
      "inputs": [
        {
          "indexed": true,
          "internalType": "uint256",
          "name": "requestId",
          "type": "uint256"
        }
      ],
      "name": "RequestedRaffleWinner",
      "type": "event"
    },
    {
      "anonymous": false,
      "inputs": [
        {
          "indexed": true,
          "internalType": "address",
          "name": "player",
          "type": "address"
        },
        {
          "indexed": false,
          "internalType": "uint256",
          "name": "winAmount",
          "type": "uint256"
        }
      ],
      "name": "WinnerPickedAndRaffleClosed",
      "type": "event"
    },
    {
      "inputs": [
        {
          "internalType": "bytes",
          "name": "",
          "type": "bytes"
        }
      ],
      "name": "checkUpkeep",
      "outputs": [
        {
          "internalType": "bool",
          "name": "upkeepNeeded",
          "type": "bool"
        },
        {
          "internalType": "bytes",
          "name": "",
          "type": "bytes"
        }
      ],
      "stateMutability": "view",
      "type": "function"
    },
    {
      "inputs": [],
      "name": "enterRaffle",
      "outputs": [],
      "stateMutability": "payable",
      "type": "function"
    },
    {
      "inputs": [],
      "name": "getEntranceFee",
      "outputs": [
        {
          "internalType": "uint256",
          "name": "",
          "type": "uint256"
        }
      ],
      "stateMutability": "view",
      "type": "function"
    },
    {
      "inputs": [],
      "name": "getInterval",
      "outputs": [
        {
          "internalType": "uint256",
          "name": "",
          "type": "uint256"
        }
      ],
      "stateMutability": "view",
      "type": "function"
    },
    {
      "inputs": [],
      "name": "getLastTimeStamp",
      "outputs": [
        {
          "internalType": "uint256",
          "name": "",
          "type": "uint256"
        }
      ],
      "stateMutability": "view",
      "type": "function"
    },
    {
      "inputs": [],
      "name": "getNumWords",
      "outputs": [
        {
          "internalType": "uint256",
          "name": "",
          "type": "uint256"
        }
      ],
      "stateMutability": "pure",
      "type": "function"
    },
    {
      "inputs": [],
      "name": "getNumberOfPlayers",
      "outputs": [
        {
          "internalType": "uint256",
          "name": "",
          "type": "uint256"
        }
      ],
      "stateMutability": "view",
      "type": "function"
    },
    {
      "inputs": [
        {
          "internalType": "uint256",
          "name": "index",
          "type": "uint256"
        }
      ],
      "name": "getPlayer",
      "outputs": [
        {
          "internalType": "address",
          "name": "",
          "type": "address"
        }
      ],
      "stateMutability": "view",
      "type": "function"
    },
    {
      "inputs": [],
      "name": "getRaffleBalance",
      "outputs": [
        {
          "internalType": "uint256",
          "name": "",
          "type": "uint256"
        }
      ],
      "stateMutability": "view",
      "type": "function"
    },
    {
      "inputs": [],
      "name": "getRaffleStartTimestamp",
      "outputs": [
        {
          "internalType": "uint256",
          "name": "",
          "type": "uint256"
        }
      ],
      "stateMutability": "view",
      "type": "function"
    },
    {
      "inputs": [],
      "name": "getRaffleState",
      "outputs": [
        {
          "internalType": "enum Raffle.RaffleState",
          "name": "",
          "type": "uint8"
        }
      ],
      "stateMutability": "view",
      "type": "function"
    },
    {
      "inputs": [],
      "name": "getRecentWinner",
      "outputs": [
        {
          "internalType": "address",
          "name": "",
          "type": "address"
        }
      ],
      "stateMutability": "view",
      "type": "function"
    },
    {
      "inputs": [],
      "name": "getRequestConfirmations",
      "outputs": [
        {
          "internalType": "uint256",
          "name": "",
          "type": "uint256"
        }
      ],
      "stateMutability": "pure",
      "type": "function"
    },
    {
      "inputs": [],
      "name": "owner",
      "outputs": [
        {
          "internalType": "address",
          "name": "",
          "type": "address"
        }
      ],
      "stateMutability": "view",
      "type": "function"
    },
    {
      "inputs": [
        {
          "internalType": "bytes",
          "name": "",
          "type": "bytes"
        }
      ],
      "name": "performUpkeep",
      "outputs": [],
      "stateMutability": "nonpayable",
      "type": "function"
    },
    {
      "inputs": [
        {
          "internalType": "uint256",
          "name": "requestId",
          "type": "uint256"
        },
        {
          "internalType": "uint256[]",
          "name": "randomWords",
          "type": "uint256[]"
        }
      ],
      "name": "rawFulfillRandomWords",
      "outputs": [],
      "stateMutability": "nonpayable",
      "type": "function"
    },
    {
      "inputs": [],
      "name": "renounceOwnership",
      "outputs": [],
      "stateMutability": "nonpayable",
      "type": "function"
    },
    {
      "inputs": [
        {
          "internalType": "uint256",
          "name": "timeLimit",
          "type": "uint256"
        }
      ],
      "name": "startRaffle",
      "outputs": [],
      "stateMutability": "nonpayable",
      "type": "function"
    },
    {
      "inputs": [
        {
          "internalType": "address",
          "name": "newOwner",
          "type": "address"
        }
      ],
      "name": "transferOwnership",
      "outputs": [],
      "stateMutability": "nonpayable",
      "type": "function"
    }
  ],
  "transactionHash": "0x7fcc3ae3e4fef063242d89aeda4f2272cb1dc2d8f9cabd03e00b0d64c5f752e4",
  "args": [
    "0x2Ca8E0C643bDe4C2E08ab1fA0da3401AdAD7734D",
    "4020",
    "0x79d3d8832d904592c0bf9818b621522c988bb8b0c05cdc3b15aea1b6e8db0c15",
    "10000000000000000",
    "2500000"
  ],
  "numDeployments": 5,
  "solcInputHash": "09f9efa484a996f3b156fe3dc7e09311",
  "bytecode": "0x6101406040523480156200001257600080fd5b5060405162001e4d38038062001e4d83398181016040528101906200003891906200028f565b848073ffffffffffffffffffffffffffffffffffffffff1660808173ffffffffffffffffffffffffffffffffffffffff1660601b815250505062000091620000856200015060201b60201c565b6200015860201b60201c565b8473ffffffffffffffffffffffffffffffffffffffff1660a08173ffffffffffffffffffffffffffffffffffffffff1660601b815250508260e081815250508367ffffffffffffffff1660c08167ffffffffffffffff1660c01b815250508161012081815250506001600660006101000a81548160ff0219169083600281111562000121576200012062000383565b5b0217905550426002819055508063ffffffff166101008163ffffffff1660e01b81525050505050505062000439565b600033905090565b60008060009054906101000a900473ffffffffffffffffffffffffffffffffffffffff169050816000806101000a81548173ffffffffffffffffffffffffffffffffffffffff021916908373ffffffffffffffffffffffffffffffffffffffff1602179055508173ffffffffffffffffffffffffffffffffffffffff168173ffffffffffffffffffffffffffffffffffffffff167f8be0079c531659141344cd1fd0a4f28419497f9722a3daafe3b4186f6b6457e060405160405180910390a35050565b6000815190506200022d81620003b7565b92915050565b6000815190506200024481620003d1565b92915050565b6000815190506200025b81620003eb565b92915050565b600081519050620002728162000405565b92915050565b60008151905062000289816200041f565b92915050565b600080600080600060a08688031215620002ae57620002ad620003b2565b5b6000620002be888289016200021c565b9550506020620002d18882890162000278565b9450506040620002e48882890162000233565b9350506060620002f7888289016200024a565b92505060806200030a8882890162000261565b9150509295509295909350565b6000620003248262000335565b9050919050565b6000819050919050565b600073ffffffffffffffffffffffffffffffffffffffff82169050919050565b6000819050919050565b600063ffffffff82169050919050565b600067ffffffffffffffff82169050919050565b7f4e487b7100000000000000000000000000000000000000000000000000000000600052602160045260246000fd5b600080fd5b620003c28162000317565b8114620003ce57600080fd5b50565b620003dc816200032b565b8114620003e857600080fd5b50565b620003f68162000355565b81146200040257600080fd5b50565b62000410816200035f565b81146200041c57600080fd5b50565b6200042a816200036f565b81146200043657600080fd5b50565b60805160601c60a05160601c60c05160c01c60e0516101005160e01c610120516119aa620004a360003960008181610440015261053d015260006107e20152600061079e015260006107bf0152600061076201526000818161047d01526104d101526119aa6000f3fe6080604052600436106101145760003560e01c80635f1b0fd8116100a0578063c1c244e811610064578063c1c244e81461034d578063e55ae4e814610378578063f1ae8c55146103b5578063f2fde38b146103de578063fd6673f51461040757610114565b80635f1b0fd8146102775780636e04ff0d146102a2578063715018a6146102e05780638da5cb5b146102f757806391ad27b41461032257610114565b80632cfcc539116100e75780632cfcc539146101c35780634585e33b146101cd578063473f1ddc146101f6578063475f03431461022157806353a2c19a1461024c57610114565b806301376bcb1461011957806309bc33a714610144578063115cbaf51461016f5780631fe543e31461019a575b600080fd5b34801561012557600080fd5b5061012e610432565b60405161013b9190611510565b60405180910390f35b34801561015057600080fd5b5061015961043c565b6040516101669190611510565b60405180910390f35b34801561017b57600080fd5b50610184610464565b60405161019191906114b5565b60405180910390f35b3480156101a657600080fd5b506101c160048036038101906101bc9190611263565b61047b565b005b6101cb61053b565b005b3480156101d957600080fd5b506101f460048036038101906101ef9190611173565b6106aa565b005b34801561020257600080fd5b5061020b6108aa565b60405161021891906113ee565b60405180910390f35b34801561022d57600080fd5b506102366108d4565b6040516102439190611510565b60405180910390f35b34801561025857600080fd5b506102616108dc565b60405161026e9190611510565b60405180910390f35b34801561028357600080fd5b5061028c6108eb565b6040516102999190611510565b60405180910390f35b3480156102ae57600080fd5b506102c960048036038101906102c491906111c0565b6108f8565b6040516102d7929190611432565b60405180910390f35b3480156102ec57600080fd5b506102f56109c2565b005b34801561030357600080fd5b5061030c6109d6565b60405161031991906113ee565b60405180910390f35b34801561032e57600080fd5b506103376109ff565b6040516103449190611510565b60405180910390f35b34801561035957600080fd5b50610362610a09565b60405161036f9190611510565b60405180910390f35b34801561038457600080fd5b5061039f600480360381019061039a9190611209565b610a13565b6040516103ac91906113ee565b60405180910390f35b3480156103c157600080fd5b506103dc60048036038101906103d79190611209565b610a5b565b005b3480156103ea57600080fd5b5061040560048036038101906104009190611146565b610ace565b005b34801561041357600080fd5b5061041c610b52565b6040516104299190611510565b60405180910390f35b6000600354905090565b60007f0000000000000000000000000000000000000000000000000000000000000000905090565b6000600660009054906101000a900460ff16905090565b7f000000000000000000000000000000000000000000000000000000000000000073ffffffffffffffffffffffffffffffffffffffff163373ffffffffffffffffffffffffffffffffffffffff161461052d57337f00000000000000000000000000000000000000000000000000000000000000006040517f1cf993f4000000000000000000000000000000000000000000000000000000008152600401610524929190611409565b60405180910390fd5b6105378282610b5f565b5050565b7f0000000000000000000000000000000000000000000000000000000000000000341015610595576040517f3038c00a00000000000000000000000000000000000000000000000000000000815260040160405180910390fd5b600160028111156105a9576105a86117fb565b5b600660009054906101000a900460ff1660028111156105cb576105ca6117fb565b5b14610602576040517fd24a271400000000000000000000000000000000000000000000000000000000815260040160405180910390fd5b6005339080600181540180825580915050600190039060005260206000200160009091909190916101000a81548173ffffffffffffffffffffffffffffffffffffffff021916908373ffffffffffffffffffffffffffffffffffffffff1602179055503373ffffffffffffffffffffffffffffffffffffffff167f0805e1d667bddb8a95f0f09880cf94f403fb596ce79928d9f29b74203ba284d460405160405180910390a2565b60006106c4604051806020016040528060008152506108f8565b509050806107335747600580549050600660009054906101000a900460ff1660028111156106f5576106f46117fb565b5b6040517f584327aa00000000000000000000000000000000000000000000000000000000815260040161072a9392919061152b565b60405180910390fd5b6002600660006101000a81548160ff02191690836002811115610759576107586117fb565b5b021790555060007f000000000000000000000000000000000000000000000000000000000000000073ffffffffffffffffffffffffffffffffffffffff16635d3b1d307f00000000000000000000000000000000000000000000000000000000000000007f000000000000000000000000000000000000000000000000000000000000000060037f000000000000000000000000000000000000000000000000000000000000000060016040518663ffffffff1660e01b8152600401610823959493929190611462565b602060405180830381600087803b15801561083d57600080fd5b505af1158015610851573d6000803e3d6000fd5b505050506040513d601f19601f820116820180604052508101906108759190611236565b9050807fcd6e45c8998311cab7e9d4385596cac867e20a0587194b954fa3a731c93ce78b60405160405180910390a250505050565b6000600460009054906101000a900473ffffffffffffffffffffffffffffffffffffffff16905090565b600047905090565b6000600163ffffffff16905090565b6000600361ffff16905090565b600060606000600660009054906101000a900460ff1660028111156109205761091f6117fb565b5b60016002811115610934576109336117fb565b5b14905060006001546003544261094a919061161c565b1190506000806005805490501190506000804711905082801561096a5750835b80156109735750805b801561097c5750815b9550856040518060400160405280600381526020017f30783000000000000000000000000000000000000000000000000000000000008152509550955050505050915091565b6109ca610db2565b6109d46000610e30565b565b60008060009054906101000a900473ffffffffffffffffffffffffffffffffffffffff16905090565b6000600154905090565b6000600254905090565b600060058281548110610a2957610a2861182a565b5b9060005260206000200160009054906101000a900473ffffffffffffffffffffffffffffffffffffffff169050919050565b610a63610db2565b6001600660006101000a81548160ff02191690836002811115610a8957610a886117fb565b5b021790555080600181905550426003819055506001547fe23fdee573320f133dc10284dcb988d5c782f07ec7b6b01d7ffbc6d537b2a42160405160405180910390a250565b610ad6610db2565b600073ffffffffffffffffffffffffffffffffffffffff168173ffffffffffffffffffffffffffffffffffffffff161415610b46576040517f08c379a0000000000000000000000000000000000000000000000000000000008152600401610b3d906114d0565b60405180910390fd5b610b4f81610e30565b50565b6000600580549050905090565b600060058054905082600081518110610b7b57610b7a61182a565b5b6020026020010151610b8d919061176c565b9050600060058281548110610ba557610ba461182a565b5b9060005260206000200160009054906101000a900473ffffffffffffffffffffffffffffffffffffffff16905080600460006101000a81548173ffffffffffffffffffffffffffffffffffffffff021916908373ffffffffffffffffffffffffffffffffffffffff160217905550600067ffffffffffffffff811115610c2e57610c2d611859565b5b604051908082528060200260200182016040528015610c5c5781602001602082028036833780820191505090505b5060059080519060200190610c72929190610efc565b506000600660006101000a81548160ff02191690836002811115610c9957610c986117fb565b5b02179055504260028190555060006001819055506000610cb76108d4565b905060008273ffffffffffffffffffffffffffffffffffffffff1682604051610cdf906113d9565b60006040518083038185875af1925050503d8060008114610d1c576040519150601f19603f3d011682016040523d82523d6000602084013e610d21565b606091505b5050905080610d5c576040517fa1d04b3900000000000000000000000000000000000000000000000000000000815260040160405180910390fd5b8273ffffffffffffffffffffffffffffffffffffffff167f1601ecd5ddd32c4217efeecffefe71b0ab7ac916ce2cd5372259d7810817606383604051610da29190611510565b60405180910390a2505050505050565b610dba610ef4565b73ffffffffffffffffffffffffffffffffffffffff16610dd86109d6565b73ffffffffffffffffffffffffffffffffffffffff1614610e2e576040517f08c379a0000000000000000000000000000000000000000000000000000000008152600401610e25906114f0565b60405180910390fd5b565b60008060009054906101000a900473ffffffffffffffffffffffffffffffffffffffff169050816000806101000a81548173ffffffffffffffffffffffffffffffffffffffff021916908373ffffffffffffffffffffffffffffffffffffffff1602179055508173ffffffffffffffffffffffffffffffffffffffff168173ffffffffffffffffffffffffffffffffffffffff167f8be0079c531659141344cd1fd0a4f28419497f9722a3daafe3b4186f6b6457e060405160405180910390a35050565b600033905090565b828054828255906000526020600020908101928215610f75579160200282015b82811115610f745782518260006101000a81548173ffffffffffffffffffffffffffffffffffffffff021916908373ffffffffffffffffffffffffffffffffffffffff16021790555091602001919060010190610f1c565b5b509050610f829190610f86565b5090565b5b80821115610f9f576000816000905550600101610f87565b5090565b6000610fb6610fb184611587565b611562565b90508083825260208201905082856020860282011115610fd957610fd8611892565b5b60005b858110156110095781610fef888261111c565b845260208401935060208301925050600181019050610fdc565b5050509392505050565b6000611026611021846115b3565b611562565b90508281526020810184848401111561104257611041611897565b5b61104d8482856116f9565b509392505050565b60008135905061106481611946565b92915050565b600082601f83011261107f5761107e61188d565b5b813561108f848260208601610fa3565b91505092915050565b60008083601f8401126110ae576110ad61188d565b5b8235905067ffffffffffffffff8111156110cb576110ca611888565b5b6020830191508360018202830111156110e7576110e6611892565b5b9250929050565b600082601f8301126111035761110261188d565b5b8135611113848260208601611013565b91505092915050565b60008135905061112b8161195d565b92915050565b6000815190506111408161195d565b92915050565b60006020828403121561115c5761115b6118a1565b5b600061116a84828501611055565b91505092915050565b6000806020838503121561118a576111896118a1565b5b600083013567ffffffffffffffff8111156111a8576111a761189c565b5b6111b485828601611098565b92509250509250929050565b6000602082840312156111d6576111d56118a1565b5b600082013567ffffffffffffffff8111156111f4576111f361189c565b5b611200848285016110ee565b91505092915050565b60006020828403121561121f5761121e6118a1565b5b600061122d8482850161111c565b91505092915050565b60006020828403121561124c5761124b6118a1565b5b600061125a84828501611131565b91505092915050565b6000806040838503121561127a576112796118a1565b5b60006112888582860161111c565b925050602083013567ffffffffffffffff8111156112a9576112a861189c565b5b6112b58582860161106a565b9150509250929050565b6112c881611650565b82525050565b6112d781611662565b82525050565b6112e68161166e565b82525050565b60006112f7826115e4565b61130181856115ef565b9350611311818560208601611708565b61131a816118a6565b840191505092915050565b61132e816116e7565b82525050565b600061134160268361160b565b915061134c826118b7565b604082019050919050565b600061136460208361160b565b915061136f82611906565b602082019050919050565b6000611387600083611600565b91506113928261192f565b600082019050919050565b6113a68161168b565b82525050565b6113b5816116b9565b82525050565b6113c4816116c3565b82525050565b6113d3816116d3565b82525050565b60006113e48261137a565b9150819050919050565b600060208201905061140360008301846112bf565b92915050565b600060408201905061141e60008301856112bf565b61142b60208301846112bf565b9392505050565b600060408201905061144760008301856112ce565b818103602083015261145981846112ec565b90509392505050565b600060a08201905061147760008301886112dd565b61148460208301876113ca565b611491604083018661139d565b61149e60608301856113bb565b6114ab60808301846113bb565b9695505050505050565b60006020820190506114ca6000830184611325565b92915050565b600060208201905081810360008301526114e981611334565b9050919050565b6000602082019050818103600083015261150981611357565b9050919050565b600060208201905061152560008301846113ac565b92915050565b600060608201905061154060008301866113ac565b61154d60208301856113ac565b61155a60408301846113ac565b949350505050565b600061156c61157d565b9050611578828261173b565b919050565b6000604051905090565b600067ffffffffffffffff8211156115a2576115a1611859565b5b602082029050602081019050919050565b600067ffffffffffffffff8211156115ce576115cd611859565b5b6115d7826118a6565b9050602081019050919050565b600081519050919050565b600082825260208201905092915050565b600081905092915050565b600082825260208201905092915050565b6000611627826116b9565b9150611632836116b9565b9250828210156116455761164461179d565b5b828203905092915050565b600061165b82611699565b9050919050565b60008115159050919050565b6000819050919050565b600081905061168682611932565b919050565b600061ffff82169050919050565b600073ffffffffffffffffffffffffffffffffffffffff82169050919050565b6000819050919050565b600063ffffffff82169050919050565b600067ffffffffffffffff82169050919050565b60006116f282611678565b9050919050565b82818337600083830152505050565b60005b8381101561172657808201518184015260208101905061170b565b83811115611735576000848401525b50505050565b611744826118a6565b810181811067ffffffffffffffff8211171561176357611762611859565b5b80604052505050565b6000611777826116b9565b9150611782836116b9565b925082611792576117916117cc565b5b828206905092915050565b7f4e487b7100000000000000000000000000000000000000000000000000000000600052601160045260246000fd5b7f4e487b7100000000000000000000000000000000000000000000000000000000600052601260045260246000fd5b7f4e487b7100000000000000000000000000000000000000000000000000000000600052602160045260246000fd5b7f4e487b7100000000000000000000000000000000000000000000000000000000600052603260045260246000fd5b7f4e487b7100000000000000000000000000000000000000000000000000000000600052604160045260246000fd5b600080fd5b600080fd5b600080fd5b600080fd5b600080fd5b600080fd5b6000601f19601f8301169050919050565b7f4f776e61626c653a206e6577206f776e657220697320746865207a65726f206160008201527f6464726573730000000000000000000000000000000000000000000000000000602082015250565b7f4f776e61626c653a2063616c6c6572206973206e6f7420746865206f776e6572600082015250565b50565b60038110611943576119426117fb565b5b50565b61194f81611650565b811461195a57600080fd5b50565b611966816116b9565b811461197157600080fd5b5056fea2646970667358221220d7e83c9d77e19c4a213456bdca322ea915658cb54bd26b334d2f3b0541bd161464736f6c63430008070033",
  "devdoc": {
    "author": "Patrick Collins",
    "details": "This implements the Chainlink VRF Version 2",
    "kind": "dev",
    "methods": {
      "checkUpkeep(bytes)": {
        "details": "This is the function that the Chainlink Keeper nodes call they look for `upkeepNeeded` to return True. the following should be true for this to return true: 1. The time interval has passed between raffle runs. 2. The lottery is open. 3. The contract has ETH. 4. Implicity, your subscription is funded with LINK."
      },
      "owner()": {
        "details": "Returns the address of the current owner."
      },
      "performUpkeep(bytes)": {
        "details": "Once `checkUpkeep` is returning `true`, this function is called and it kicks off a Chainlink VRF call to get a random winner."
      },
      "renounceOwnership()": {
        "details": "Leaves the contract without owner. It will not be possible to call `onlyOwner` functions anymore. Can only be called by the current owner. NOTE: Renouncing ownership will leave the contract without an owner, thereby removing any functionality that is only available to the owner."
      },
      "transferOwnership(address)": {
        "details": "Transfers ownership of the contract to a new account (`newOwner`). Can only be called by the current owner."
      }
    },
    "title": "A sample Raffle Contract",
    "version": 1
  },
  "userdoc": {
    "kind": "user",
    "methods": {
      "getRaffleBalance()": {
        "notice": "Getter Functions "
      }
    },
    "notice": "This contract is for creating a sample raffle contract",
    "version": 1
  },
  "storageLayout": {
    "storage": [
      {
        "astId": 180,
        "contract": "contracts/raffle.sol:Raffle",
        "label": "_owner",
        "offset": 0,
        "slot": "0",
        "type": "t_address"
      },
      {
        "astId": 358,
        "contract": "contracts/raffle.sol:Raffle",
        "label": "s_interval",
        "offset": 0,
        "slot": "1",
        "type": "t_uint256"
      },
      {
        "astId": 360,
        "contract": "contracts/raffle.sol:Raffle",
        "label": "s_lastTimeStamp",
        "offset": 0,
        "slot": "2",
        "type": "t_uint256"
      },
      {
        "astId": 362,
        "contract": "contracts/raffle.sol:Raffle",
        "label": "s_startTimestamp",
        "offset": 0,
        "slot": "3",
        "type": "t_uint256"
      },
      {
        "astId": 364,
        "contract": "contracts/raffle.sol:Raffle",
        "label": "s_recentWinner",
        "offset": 0,
        "slot": "4",
        "type": "t_address"
      },
      {
        "astId": 367,
        "contract": "contracts/raffle.sol:Raffle",
        "label": "s_players",
        "offset": 0,
        "slot": "5",
        "type": "t_array(t_address_payable)dyn_storage"
      },
      {
        "astId": 370,
        "contract": "contracts/raffle.sol:Raffle",
        "label": "s_raffleState",
        "offset": 0,
        "slot": "6",
        "type": "t_enum(RaffleState)339"
      }
    ],
    "types": {
      "t_address": {
        "encoding": "inplace",
        "label": "address",
        "numberOfBytes": "20"
      },
      "t_address_payable": {
        "encoding": "inplace",
        "label": "address payable",
        "numberOfBytes": "20"
      },
      "t_array(t_address_payable)dyn_storage": {
        "base": "t_address_payable",
        "encoding": "dynamic_array",
        "label": "address payable[]",
        "numberOfBytes": "32"
      },
      "t_enum(RaffleState)339": {
        "encoding": "inplace",
        "label": "enum Raffle.RaffleState",
        "numberOfBytes": "1"
      },
      "t_uint256": {
        "encoding": "inplace",
        "label": "uint256",
        "numberOfBytes": "32"
      }
    }
  }
}